{"abi":[{"type":"function","name":"readByteRange","inputs":[{"name":"byte_range_index","type":"uint8","internalType":"uint8"},{"name":"start_offset","type":"uint32","internalType":"uint32"},{"name":"length","type":"uint32","internalType":"uint32"}],"outputs":[{"name":"success","type":"bool","internalType":"bool"},{"name":"data","type":"bytes","internalType":"bytes"}],"stateMutability":"view"},{"type":"function","name":"readByteRange","inputs":[{"name":"byte_range_index","type":"uint8","internalType":"uint8"}],"outputs":[{"name":"success","type":"bool","internalType":"bool"},{"name":"data","type":"bytes","internalType":"bytes"}],"stateMutability":"view"},{"type":"function","name":"readBytes","inputs":[{"name":"start_offset","type":"uint32","internalType":"uint32"},{"name":"length","type":"uint32","internalType":"uint32"}],"outputs":[{"name":"success","type":"bool","internalType":"bool"},{"name":"result","type":"bytes","internalType":"bytes"}],"stateMutability":"view"},{"type":"function","name":"readBytes","inputs":[],"outputs":[{"name":"success","type":"bool","internalType":"bool"},{"name":"data","type":"bytes","internalType":"bytes"}],"stateMutability":"view"}],"bytecode":{"object":"0x61039c610039600b82828239805160001a607314602c57634e487b7160e01b600052600060045260246000fd5b30600052607381538281f3fe73000000000000000000000000000000000000000030146080604052600436106100565760003560e01c80631660d3f81461005b578063819a781814610085578063a98ce76d14610098578063d98b5568146100ab575b600080fd5b61006e610069366004610252565b6100b3565b60405161007c9291906102b9565b60405180910390f35b61006e6100933660046102f5565b61016c565b61006e6100a6366004610317565b6101f7565b61006e610212565b60408051600160f81b602082015260f885901b6001600160f81b0319169181019190915260e083811b6001600160e01b03199081166060808501919091529184901b1660808301526000916105399060a00160408051601f198184030181529082905261011f9161034a565b600060405180830381855afa9150503d806000811461015a576040519150601f19603f3d011682016040523d82523d6000602084013e61015f565b606091505b5091509150935093915050565b6040805160006020820181905260f884901b6001600160f81b031916828401528251808303840181526060928301938490529092610539916101ad9161034a565b600060405180830381855afa9150503d80600081146101e8576040519150601f19603f3d011682016040523d82523d6000602084013e6101ed565b606091505b5091509150915091565b60006060610207600085856100b3565b915091509250929050565b60006060610220600061016c565b915091509091565b803560ff8116811461023957600080fd5b919050565b803563ffffffff8116811461023957600080fd5b60008060006060848603121561026757600080fd5b61027084610228565b925061027e6020850161023e565b915061028c6040850161023e565b90509250925092565b60005b838110156102b0578181015183820152602001610298565b50506000910152565b821515815260406020820152600082518060408401526102e0816060850160208701610295565b601f01601f1916919091016060019392505050565b60006020828403121561030757600080fd5b61031082610228565b9392505050565b6000806040838503121561032a57600080fd5b6103338361023e565b91506103416020840161023e565b90509250929050565b6000825161035c818460208701610295565b919091019291505056fea2646970667358221220079f4583fa07d7b3708d4e0c25eb0971b444aa0adde448e2a79187bf3714872864736f6c634300081a0033","linkReferences":{}},"methodIdentifiers":{"readByteRange(uint8)":"819a7818","readByteRange(uint8,uint32,uint32)":"1660d3f8","readBytes()":"d98b5568","readBytes(uint32,uint32)":"a98ce76d"},"id":3}