{"abi":[{"type":"function","name":"readByteRange","inputs":[{"name":"byte_range_index","type":"uint8","internalType":"uint8"},{"name":"start_offset","type":"uint32","internalType":"uint32"},{"name":"length","type":"uint32","internalType":"uint32"}],"outputs":[{"name":"success","type":"bool","internalType":"bool"},{"name":"data","type":"bytes","internalType":"bytes"}],"stateMutability":"view"},{"type":"function","name":"readByteRange","inputs":[{"name":"byte_range_index","type":"uint8","internalType":"uint8"}],"outputs":[{"name":"success","type":"bool","internalType":"bool"},{"name":"data","type":"bytes","internalType":"bytes"}],"stateMutability":"view"},{"type":"function","name":"readBytes","inputs":[{"name":"relative_offset","type":"uint32","internalType":"uint32"},{"name":"length","type":"uint32","internalType":"uint32"}],"outputs":[{"name":"success","type":"bool","internalType":"bool"},{"name":"result","type":"bytes","internalType":"bytes"}],"stateMutability":"view"},{"type":"function","name":"readBytes","inputs":[],"outputs":[{"name":"success","type":"bool","internalType":"bool"},{"name":"data","type":"bytes","internalType":"bytes"}],"stateMutability":"view"}],"bytecode":{"object":"0x6080604052348015600f57600080fd5b506103908061001f6000396000f3fe608060405234801561001057600080fd5b506004361061004c5760003560e01c80631660d3f814610051578063819a78181461007b578063a98ce76d1461008e578063d98b5568146100a1575b600080fd5b61006461005f366004610246565b6100a9565b6040516100729291906102ad565b60405180910390f35b6100646100893660046102e9565b61015c565b61006461009c36600461030b565b6101eb565b610064610206565b604051600160f81b60208201526001600160f81b031960f885901b1660218201526001600160e01b031960e084811b8216602284015283901b16602682015260009060609061050090602a0160408051601f198184030181529082905261010f9161033e565b600060405180830381855afa9150503d806000811461014a576040519150601f19603f3d011682016040523d82523d6000602084013e61014f565b606091505b5091509150935093915050565b6040516000602082018190526001600160f81b031960f884901b166021830152906060906105009060220160408051601f19818403018152908290526101a19161033e565b600060405180830381855afa9150503d80600081146101dc576040519150601f19603f3d011682016040523d82523d6000602084013e6101e1565b606091505b5091509150915091565b600060606101fb600085856100a9565b915091509250929050565b60006060610214600061015c565b915091509091565b803560ff8116811461022d57600080fd5b919050565b803563ffffffff8116811461022d57600080fd5b60008060006060848603121561025b57600080fd5b6102648461021c565b925061027260208501610232565b915061028060408501610232565b90509250925092565b60005b838110156102a457818101518382015260200161028c565b50506000910152565b821515815260406020820152600082518060408401526102d4816060850160208701610289565b601f01601f1916919091016060019392505050565b6000602082840312156102fb57600080fd5b6103048261021c565b9392505050565b6000806040838503121561031e57600080fd5b61032783610232565b915061033560208401610232565b90509250929050565b60008251610350818460208701610289565b919091019291505056fea2646970667358221220417f8a883d96d566bf25c9186d065940f9b3e5d125f9d59c1d063a57b860116564736f6c634300081a0033","linkReferences":{}},"methodIdentifiers":{"readByteRange(uint8)":"819a7818","readByteRange(uint8,uint32,uint32)":"1660d3f8","readBytes()":"d98b5568","readBytes(uint32,uint32)":"a98ce76d"},"id":2}