{"abi":[{"type":"function","name":"get_storage","inputs":[],"outputs":[{"name":"","type":"bytes","internalType":"bytes"}],"stateMutability":"view"},{"type":"function","name":"read_pd_chunk_into_storage","inputs":[{"name":"arg","type":"tuple","internalType":"struct ProgrammableDataArgs","components":[{"name":"range_index","type":"uint32","internalType":"uint32"},{"name":"offset","type":"uint32","internalType":"uint32"},{"name":"count","type":"uint16","internalType":"uint16"}]},{"name":"read_bytes","type":"uint8","internalType":"uint8"}],"outputs":[],"stateMutability":"nonpayable"},{"type":"function","name":"storedData","inputs":[],"outputs":[{"name":"","type":"bytes","internalType":"bytes"}],"stateMutability":"view"}],"bytecode":{"object":"0x6080604052348015600f57600080fd5b506106458061001f6000396000f3fe608060405234801561001057600080fd5b50600436106100415760003560e01c80632a1afcd9146100465780633f08c67814610064578063c0ea4e9d14610079575b600080fd5b61004e610081565b60405161005b91906103b6565b60405180910390f35b6100776100723660046103e9565b61010f565b005b61004e610300565b6000805461008e9061042e565b80601f01602080910402602001604051908101604052809291908181526020018280546100ba9061042e565b80156101075780601f106100dc57610100808354040283529160200191610107565b820191906000526020600020905b8154815290600101906020018083116100ea57829003601f168201915b505050505081565b600061011e6020840184610468565b905060006101326040850160208601610468565b905060006101466060860160408701610495565b6040516001600160e01b031960e086811b8216602084015285901b1660248201526001600160f01b031960f083901b166028820152909150600090602a0160405160208183030381529060405290506000806105396001600160a01b0316836040516101b291906104b9565b600060405180830381855afa9150503d80600081146101ed576040519150601f19603f3d011682016040523d82523d6000602084013e6101f2565b606091505b5091509150816102405760405162461bcd60e51b81526020600482015260156024820152741b1bd8591a5b99c818da1d5b9adcc819985a5b1959605a1b604482015260640160405180910390fd5b60008760ff1667ffffffffffffffff81111561025e5761025e6104d5565b6040519080825280601f01601f191660200182016040528015610288576020820181803683370190505b50905060005b8860ff168110156102e7578281815181106102ab576102ab6104eb565b602001015160f81c60f81b8282815181106102c8576102c86104eb565b60200101906001600160f81b031916908160001a90535060010161028e565b5060006102f48282610550565b50505050505050505050565b60606000805461030f9061042e565b80601f016020809104026020016040519081016040528092919081815260200182805461033b9061042e565b80156103885780601f1061035d57610100808354040283529160200191610388565b820191906000526020600020905b81548152906001019060200180831161036b57829003601f168201915b5050505050905090565b60005b838110156103ad578181015183820152602001610395565b50506000910152565b60208152600082518060208401526103d5816040850160208701610392565b601f01601f19169190910160400192915050565b60008082840360808112156103fd57600080fd5b606081121561040b57600080fd5b50829150606083013560ff8116811461042357600080fd5b809150509250929050565b600181811c9082168061044257607f821691505b60208210810361046257634e487b7160e01b600052602260045260246000fd5b50919050565b60006020828403121561047a57600080fd5b813563ffffffff8116811461048e57600080fd5b9392505050565b6000602082840312156104a757600080fd5b813561ffff8116811461048e57600080fd5b600082516104cb818460208701610392565b9190910192915050565b634e487b7160e01b600052604160045260246000fd5b634e487b7160e01b600052603260045260246000fd5b601f82111561054b57806000526020600020601f840160051c810160208510156105285750805b601f840160051c820191505b818110156105485760008155600101610534565b50505b505050565b815167ffffffffffffffff81111561056a5761056a6104d5565b61057e81610578845461042e565b84610501565b6020601f8211600181146105b2576000831561059a5750848201515b600019600385901b1c1916600184901b178455610548565b600084815260208120601f198516915b828110156105e257878501518255602094850194600190920191016105c2565b50848210156106005786840151600019600387901b60f8161c191681555b50505050600190811b0190555056fea2646970667358221220900995756d4e8658a2824a3ee859beecdbb3be9a203e377debd1bd97b69cf1d864736f6c634300081a0033","linkReferences":{}},"methodIdentifiers":{"get_storage()":"c0ea4e9d","read_pd_chunk_into_storage((uint32,uint32,uint16),uint8)":"3f08c678","storedData()":"2a1afcd9"},"id":20}