{"abi":[{"type":"function","name":"getStorage","inputs":[],"outputs":[{"name":"","type":"bytes","internalType":"bytes"}],"stateMutability":"view"},{"type":"function","name":"readByteRange","inputs":[{"name":"byte_range_index","type":"uint8","internalType":"uint8"},{"name":"start_offset","type":"uint32","internalType":"uint32"},{"name":"length","type":"uint32","internalType":"uint32"}],"outputs":[{"name":"success","type":"bool","internalType":"bool"},{"name":"data","type":"bytes","internalType":"bytes"}],"stateMutability":"view"},{"type":"function","name":"readByteRange","inputs":[{"name":"byte_range_index","type":"uint8","internalType":"uint8"}],"outputs":[{"name":"success","type":"bool","internalType":"bool"},{"name":"data","type":"bytes","internalType":"bytes"}],"stateMutability":"view"},{"type":"function","name":"readBytes","inputs":[{"name":"relative_offset","type":"uint32","internalType":"uint32"},{"name":"length","type":"uint32","internalType":"uint32"}],"outputs":[{"name":"success","type":"bool","internalType":"bool"},{"name":"result","type":"bytes","internalType":"bytes"}],"stateMutability":"view"},{"type":"function","name":"readBytes","inputs":[],"outputs":[{"name":"success","type":"bool","internalType":"bool"},{"name":"data","type":"bytes","internalType":"bytes"}],"stateMutability":"view"},{"type":"function","name":"readPdChunkIntoStorage","inputs":[],"outputs":[],"stateMutability":"nonpayable"},{"type":"function","name":"storedData","inputs":[],"outputs":[{"name":"","type":"bytes","internalType":"bytes"}],"stateMutability":"view"}],"bytecode":{"object":"0x6080604052348015600f57600080fd5b506106f38061001f6000396000f3fe608060405234801561001057600080fd5b506004361061007d5760003560e01c8063819a78181161005b578063819a7818146100c9578063a98ce76d146100dc578063d98b5568146100ef578063dcaf27c0146100f757600080fd5b80631660d3f8146100825780632a1afcd9146100ac5780633408f73a146100c1575b600080fd5b610095610090366004610426565b610101565b6040516100a39291906104b9565b60405180910390f35b6100b46101b4565b6040516100a391906104dc565b6100b4610242565b6100956100d73660046104f6565b6102d4565b6100956100ea366004610511565b610363565b61009561037e565b6100ff610394565b005b604051600160f81b60208201526001600160f81b031960f885901b1660218201526001600160e01b031960e084811b8216602284015283901b16602682015260009060609061050090602a0160408051601f198184030181529082905261016791610544565b600060405180830381855afa9150503d80600081146101a2576040519150601f19603f3d011682016040523d82523d6000602084013e6101a7565b606091505b5091509150935093915050565b600080546101c190610560565b80601f01602080910402602001604051908101604052809291908181526020018280546101ed90610560565b801561023a5780601f1061020f5761010080835404028352916020019161023a565b820191906000526020600020905b81548152906001019060200180831161021d57829003601f168201915b505050505081565b60606000805461025190610560565b80601f016020809104026020016040519081016040528092919081815260200182805461027d90610560565b80156102ca5780601f1061029f576101008083540402835291602001916102ca565b820191906000526020600020905b8154815290600101906020018083116102ad57829003601f168201915b5050505050905090565b6040516000602082018190526001600160f81b031960f884901b166021830152906060906105009060220160408051601f198184030181529082905261031991610544565b600060405180830381855afa9150503d8060008114610354576040519150601f19603f3d011682016040523d82523d6000602084013e610359565b606091505b5091509150915091565b6000606061037360008585610101565b915091509250929050565b6000606061038c60006102d4565b915091509091565b60008061039f61037e565b91509150816103eb5760405162461bcd60e51b81526020600482015260146024820152731c9958591a5b99c8189e5d195cc819985a5b195960621b604482015260640160405180910390fd5b60006103f782826105fe565b505050565b803560ff8116811461040d57600080fd5b919050565b803563ffffffff8116811461040d57600080fd5b60008060006060848603121561043b57600080fd5b610444846103fc565b925061045260208501610412565b915061046060408501610412565b90509250925092565b60005b8381101561048457818101518382015260200161046c565b50506000910152565b600081518084526104a5816020860160208601610469565b601f01601f19169290920160200192915050565b82151581526040602082015260006104d4604083018461048d565b949350505050565b6020815260006104ef602083018461048d565b9392505050565b60006020828403121561050857600080fd5b6104ef826103fc565b6000806040838503121561052457600080fd5b61052d83610412565b915061053b60208401610412565b90509250929050565b60008251610556818460208701610469565b9190910192915050565b600181811c9082168061057457607f821691505b60208210810361059457634e487b7160e01b600052602260045260246000fd5b50919050565b634e487b7160e01b600052604160045260246000fd5b601f8211156103f757806000526020600020601f840160051c810160208510156105d75750805b601f840160051c820191505b818110156105f757600081556001016105e3565b5050505050565b815167ffffffffffffffff8111156106185761061861059a565b61062c816106268454610560565b846105b0565b6020601f82116001811461066057600083156106485750848201515b600019600385901b1c1916600184901b1784556105f7565b600084815260208120601f198516915b828110156106905787850151825560209485019460019092019101610670565b50848210156106ae5786840151600019600387901b60f8161c191681555b50505050600190811b0190555056fea2646970667358221220bbe93f1b3d6671e17969e2d81e109d0f4e3db9e9bfa79fe32838888c557c4e8464736f6c634300081a0033","linkReferences":{}},"methodIdentifiers":{"getStorage()":"3408f73a","readByteRange(uint8)":"819a7818","readByteRange(uint8,uint32,uint32)":"1660d3f8","readBytes()":"d98b5568","readBytes(uint32,uint32)":"a98ce76d","readPdChunkIntoStorage()":"dcaf27c0","storedData()":"2a1afcd9"},"id":0}