{"abi":[{"type":"constructor","inputs":[{"name":"initialOwner","type":"address","internalType":"address"}],"stateMutability":"nonpayable"},{"type":"function","name":"DOMAIN_SEPARATOR","inputs":[],"outputs":[{"name":"","type":"bytes32","internalType":"bytes32"}],"stateMutability":"view"},{"type":"function","name":"allowance","inputs":[{"name":"owner","type":"address","internalType":"address"},{"name":"spender","type":"address","internalType":"address"}],"outputs":[{"name":"","type":"uint256","internalType":"uint256"}],"stateMutability":"view"},{"type":"function","name":"approve","inputs":[{"name":"spender","type":"address","internalType":"address"},{"name":"value","type":"uint256","internalType":"uint256"}],"outputs":[{"name":"","type":"bool","internalType":"bool"}],"stateMutability":"nonpayable"},{"type":"function","name":"balanceOf","inputs":[{"name":"account","type":"address","internalType":"address"}],"outputs":[{"name":"","type":"uint256","internalType":"uint256"}],"stateMutability":"view"},{"type":"function","name":"burn","inputs":[{"name":"value","type":"uint256","internalType":"uint256"}],"outputs":[],"stateMutability":"nonpayable"},{"type":"function","name":"burnFrom","inputs":[{"name":"account","type":"address","internalType":"address"},{"name":"value","type":"uint256","internalType":"uint256"}],"outputs":[],"stateMutability":"nonpayable"},{"type":"function","name":"decimals","inputs":[],"outputs":[{"name":"","type":"uint8","internalType":"uint8"}],"stateMutability":"view"},{"type":"function","name":"eip712Domain","inputs":[],"outputs":[{"name":"fields","type":"bytes1","internalType":"bytes1"},{"name":"name","type":"string","internalType":"string"},{"name":"version","type":"string","internalType":"string"},{"name":"chainId","type":"uint256","internalType":"uint256"},{"name":"verifyingContract","type":"address","internalType":"address"},{"name":"salt","type":"bytes32","internalType":"bytes32"},{"name":"extensions","type":"uint256[]","internalType":"uint256[]"}],"stateMutability":"view"},{"type":"function","name":"mint","inputs":[{"name":"to","type":"address","internalType":"address"},{"name":"amount","type":"uint256","internalType":"uint256"}],"outputs":[],"stateMutability":"nonpayable"},{"type":"function","name":"name","inputs":[],"outputs":[{"name":"","type":"string","internalType":"string"}],"stateMutability":"view"},{"type":"function","name":"nonces","inputs":[{"name":"owner","type":"address","internalType":"address"}],"outputs":[{"name":"","type":"uint256","internalType":"uint256"}],"stateMutability":"view"},{"type":"function","name":"owner","inputs":[],"outputs":[{"name":"","type":"address","internalType":"address"}],"stateMutability":"view"},{"type":"function","name":"permit","inputs":[{"name":"owner","type":"address","internalType":"address"},{"name":"spender","type":"address","internalType":"address"},{"name":"value","type":"uint256","internalType":"uint256"},{"name":"deadline","type":"uint256","internalType":"uint256"},{"name":"v","type":"uint8","internalType":"uint8"},{"name":"r","type":"bytes32","internalType":"bytes32"},{"name":"s","type":"bytes32","internalType":"bytes32"}],"outputs":[],"stateMutability":"nonpayable"},{"type":"function","name":"renounceOwnership","inputs":[],"outputs":[],"stateMutability":"nonpayable"},{"type":"function","name":"symbol","inputs":[],"outputs":[{"name":"","type":"string","internalType":"string"}],"stateMutability":"view"},{"type":"function","name":"totalSupply","inputs":[],"outputs":[{"name":"","type":"uint256","internalType":"uint256"}],"stateMutability":"view"},{"type":"function","name":"transfer","inputs":[{"name":"to","type":"address","internalType":"address"},{"name":"value","type":"uint256","internalType":"uint256"}],"outputs":[{"name":"","type":"bool","internalType":"bool"}],"stateMutability":"nonpayable"},{"type":"function","name":"transferFrom","inputs":[{"name":"from","type":"address","internalType":"address"},{"name":"to","type":"address","internalType":"address"},{"name":"value","type":"uint256","internalType":"uint256"}],"outputs":[{"name":"","type":"bool","internalType":"bool"}],"stateMutability":"nonpayable"},{"type":"function","name":"transferOwnership","inputs":[{"name":"newOwner","type":"address","internalType":"address"}],"outputs":[],"stateMutability":"nonpayable"},{"type":"event","name":"Approval","inputs":[{"name":"owner","type":"address","indexed":true,"internalType":"address"},{"name":"spender","type":"address","indexed":true,"internalType":"address"},{"name":"value","type":"uint256","indexed":false,"internalType":"uint256"}],"anonymous":false},{"type":"event","name":"EIP712DomainChanged","inputs":[],"anonymous":false},{"type":"event","name":"OwnershipTransferred","inputs":[{"name":"previousOwner","type":"address","indexed":true,"internalType":"address"},{"name":"newOwner","type":"address","indexed":true,"internalType":"address"}],"anonymous":false},{"type":"event","name":"Transfer","inputs":[{"name":"from","type":"address","indexed":true,"internalType":"address"},{"name":"to","type":"address","indexed":true,"internalType":"address"},{"name":"value","type":"uint256","indexed":false,"internalType":"uint256"}],"anonymous":false},{"type":"error","name":"ECDSAInvalidSignature","inputs":[]},{"type":"error","name":"ECDSAInvalidSignatureLength","inputs":[{"name":"length","type":"uint256","internalType":"uint256"}]},{"type":"error","name":"ECDSAInvalidSignatureS","inputs":[{"name":"s","type":"bytes32","internalType":"bytes32"}]},{"type":"error","name":"ERC20InsufficientAllowance","inputs":[{"name":"spender","type":"address","internalType":"address"},{"name":"allowance","type":"uint256","internalType":"uint256"},{"name":"needed","type":"uint256","internalType":"uint256"}]},{"type":"error","name":"ERC20InsufficientBalance","inputs":[{"name":"sender","type":"address","internalType":"address"},{"name":"balance","type":"uint256","internalType":"uint256"},{"name":"needed","type":"uint256","internalType":"uint256"}]},{"type":"error","name":"ERC20InvalidApprover","inputs":[{"name":"approver","type":"address","internalType":"address"}]},{"type":"error","name":"ERC20InvalidReceiver","inputs":[{"name":"receiver","type":"address","internalType":"address"}]},{"type":"error","name":"ERC20InvalidSender","inputs":[{"name":"sender","type":"address","internalType":"address"}]},{"type":"error","name":"ERC20InvalidSpender","inputs":[{"name":"spender","type":"address","internalType":"address"}]},{"type":"error","name":"ERC2612ExpiredSignature","inputs":[{"name":"deadline","type":"uint256","internalType":"uint256"}]},{"type":"error","name":"ERC2612InvalidSigner","inputs":[{"name":"signer","type":"address","internalType":"address"},{"name":"owner","type":"address","internalType":"address"}]},{"type":"error","name":"InvalidAccountNonce","inputs":[{"name":"account","type":"address","internalType":"address"},{"name":"currentNonce","type":"uint256","internalType":"uint256"}]},{"type":"error","name":"InvalidShortString","inputs":[]},{"type":"error","name":"OwnableInvalidOwner","inputs":[{"name":"owner","type":"address","internalType":"address"}]},{"type":"error","name":"OwnableUnauthorizedAccount","inputs":[{"name":"account","type":"address","internalType":"address"}]},{"type":"error","name":"StringTooLong","inputs":[{"name":"str","type":"string","internalType":"string"}]}],"bytecode":{"object":"0x61016060405234801561001157600080fd5b506040516118d93803806118d983398101604081905261003091610403565b6040518060400160405280600981526020016804972797345524332360bc1b81525080604051806040016040528060018152602001603160f81b815250836040518060400160405280600981526020016804972797345524332360bc1b81525060405180604001604052806003815260200162252a2960e91b81525081600390816100bb91906104d2565b5060046100c882826104d2565b5050506001600160a01b0381166100fa57604051631e4fbdf760e01b8152600060048201526024015b60405180910390fd5b610103816101dc565b5061010f82600661022e565b6101205261011e81600761022e565b61014052815160208084019190912060e052815190820120610100524660a0526101ab60e05161010051604080517f8b73c3c69bb8fe3d512ecc4cf759cc79239f7b179b0ffacaa9a75d522b39400f60208201529081019290925260608201524660808201523060a082015260009060c00160405160208183030381529060405280519060200120905090565b60805250503060c052506101d6336101c56012600a61068d565b6101d19061271061069c565b610261565b50610738565b600580546001600160a01b038381166001600160a01b0319831681179093556040519116919082907f8be0079c531659141344cd1fd0a4f28419497f9722a3daafe3b4186f6b6457e090600090a35050565b600060208351101561024a576102438361029b565b905061025b565b8161025584826104d2565b5060ff90505b92915050565b6001600160a01b03821661028b5760405163ec442f0560e01b8152600060048201526024016100f1565b610297600083836102d9565b5050565b600080829050601f815111156102c6578260405163305a27a960e01b81526004016100f191906106b3565b80516102d182610701565b179392505050565b6001600160a01b0383166103045780600260008282546102f99190610725565b909155506103769050565b6001600160a01b038316600090815260208190526040902054818110156103575760405163391434e360e21b81526001600160a01b038516600482015260248101829052604481018390526064016100f1565b6001600160a01b03841660009081526020819052604090209082900390555b6001600160a01b038216610392576002805482900390556103b1565b6001600160a01b03821660009081526020819052604090208054820190555b816001600160a01b0316836001600160a01b03167fddf252ad1be2c89b69c2b068fc378daa952ba7f163c4a11628f55a4df523b3ef836040516103f691815260200190565b60405180910390a3505050565b60006020828403121561041557600080fd5b81516001600160a01b038116811461042c57600080fd5b9392505050565b634e487b7160e01b600052604160045260246000fd5b600181811c9082168061045d57607f821691505b60208210810361047d57634e487b7160e01b600052602260045260246000fd5b50919050565b601f8211156104cd57806000526020600020601f840160051c810160208510156104aa5750805b601f840160051c820191505b818110156104ca57600081556001016104b6565b50505b505050565b81516001600160401b038111156104eb576104eb610433565b6104ff816104f98454610449565b84610483565b6020601f821160018114610533576000831561051b5750848201515b600019600385901b1c1916600184901b1784556104ca565b600084815260208120601f198516915b828110156105635787850151825560209485019460019092019101610543565b50848210156105815786840151600019600387901b60f8161c191681555b50505050600190811b01905550565b634e487b7160e01b600052601160045260246000fd5b6001815b60018411156105e1578085048111156105c5576105c5610590565b60018416156105d357908102905b60019390931c9280026105aa565b935093915050565b6000826105f85750600161025b565b816106055750600061025b565b816001811461061b576002811461062557610641565b600191505061025b565b60ff84111561063657610636610590565b50506001821b61025b565b5060208310610133831016604e8410600b8410161715610664575081810a61025b565b61067160001984846105a6565b806000190482111561068557610685610590565b029392505050565b600061042c60ff8416836105e9565b808202811582820484141761025b5761025b610590565b602081526000825180602084015260005b818110156106e157602081860181015160408684010152016106c4565b506000604082850101526040601f19601f83011684010191505092915050565b8051602080830151919081101561047d5760001960209190910360031b1b16919050565b8082018082111561025b5761025b610590565b60805160a05160c05160e051610100516101205161014051611147610792600039600061093101526000610904015260006107c101526000610799015260006106f40152600061071e0152600061074801526111476000f3fe608060405234801561001057600080fd5b50600436106101215760003560e01c8063715018a6116100ad57806395d89b411161007157806395d89b4114610258578063a9059cbb14610260578063d505accf14610273578063dd62ed3e14610286578063f2fde38b146102bf57600080fd5b8063715018a6146101f457806379cc6790146101fc5780637ecebe001461020f57806384b0196e146102225780638da5cb5b1461023d57600080fd5b8063313ce567116100f4578063313ce5671461018c5780633644e5151461019b57806340c10f19146101a357806342966c68146101b857806370a08231146101cb57600080fd5b806306fdde0314610126578063095ea7b31461014457806318160ddd1461016757806323b872dd14610179575b600080fd5b61012e6102d2565b60405161013b9190610e91565b60405180910390f35b610157610152366004610ec7565b610364565b604051901515815260200161013b565b6002545b60405190815260200161013b565b610157610187366004610ef1565b61037e565b6040516012815260200161013b565b61016b6103a2565b6101b66101b1366004610ec7565b6103b1565b005b6101b66101c6366004610f2e565b6103c7565b61016b6101d9366004610f47565b6001600160a01b031660009081526020819052604090205490565b6101b66103d4565b6101b661020a366004610ec7565b6103e8565b61016b61021d366004610f47565b6103fd565b61022a61041b565b60405161013b9796959493929190610f62565b6005546040516001600160a01b03909116815260200161013b565b61012e610461565b61015761026e366004610ec7565b610470565b6101b6610281366004610ffa565b61047e565b61016b61029436600461106d565b6001600160a01b03918216600090815260016020908152604080832093909416825291909152205490565b6101b66102cd366004610f47565b6105bd565b6060600380546102e1906110a0565b80601f016020809104026020016040519081016040528092919081815260200182805461030d906110a0565b801561035a5780601f1061032f5761010080835404028352916020019161035a565b820191906000526020600020905b81548152906001019060200180831161033d57829003601f168201915b5050505050905090565b6000336103728185856105f8565b60019150505b92915050565b60003361038c85828561060a565b610397858585610688565b506001949350505050565b60006103ac6106e7565b905090565b6103b9610812565b6103c3828261083f565b5050565b6103d13382610875565b50565b6103dc610812565b6103e660006108ab565b565b6103f382338361060a565b6103c38282610875565b6001600160a01b038116600090815260086020526040812054610378565b60006060806000806000606061042f6108fd565b61043761092a565b60408051600080825260208201909252600f60f81b9b939a50919850469750309650945092509050565b6060600480546102e1906110a0565b600033610372818585610688565b834211156104a75760405163313c898160e11b8152600481018590526024015b60405180910390fd5b60007f6e71edae12b1b97f4d1f60370fef10105fa2faae0126114a169c64845d6126c98888886104f48c6001600160a01b0316600090815260086020526040902080546001810190915590565b6040805160208101969096526001600160a01b0394851690860152929091166060840152608083015260a082015260c0810186905260e001604051602081830303815290604052805190602001209050600061054f82610957565b9050600061055f82878787610984565b9050896001600160a01b0316816001600160a01b0316146105a6576040516325c0072360e11b81526001600160a01b0380831660048301528b16602482015260440161049e565b6105b18a8a8a6105f8565b50505050505050505050565b6105c5610812565b6001600160a01b0381166105ef57604051631e4fbdf760e01b81526000600482015260240161049e565b6103d1816108ab565b61060583838360016109b2565b505050565b6001600160a01b038381166000908152600160209081526040808320938616835292905220546000198114610682578181101561067357604051637dc7a0d960e11b81526001600160a01b0384166004820152602481018290526044810183905260640161049e565b610682848484840360006109b2565b50505050565b6001600160a01b0383166106b257604051634b637e8f60e11b81526000600482015260240161049e565b6001600160a01b0382166106dc5760405163ec442f0560e01b81526000600482015260240161049e565b610605838383610a87565b6000306001600160a01b037f00000000000000000000000000000000000000000000000000000000000000001614801561074057507f000000000000000000000000000000000000000000000000000000000000000046145b1561076a57507f000000000000000000000000000000000000000000000000000000000000000090565b6103ac604080517f8b73c3c69bb8fe3d512ecc4cf759cc79239f7b179b0ffacaa9a75d522b39400f60208201527f0000000000000000000000000000000000000000000000000000000000000000918101919091527f000000000000000000000000000000000000000000000000000000000000000060608201524660808201523060a082015260009060c00160405160208183030381529060405280519060200120905090565b6005546001600160a01b031633146103e65760405163118cdaa760e01b815233600482015260240161049e565b6001600160a01b0382166108695760405163ec442f0560e01b81526000600482015260240161049e565b6103c360008383610a87565b6001600160a01b03821661089f57604051634b637e8f60e11b81526000600482015260240161049e565b6103c382600083610a87565b600580546001600160a01b038381166001600160a01b0319831681179093556040519116919082907f8be0079c531659141344cd1fd0a4f28419497f9722a3daafe3b4186f6b6457e090600090a35050565b60606103ac7f00000000000000000000000000000000000000000000000000000000000000006006610bb1565b60606103ac7f00000000000000000000000000000000000000000000000000000000000000006007610bb1565b60006103786109646106e7565b8360405161190160f01b8152600281019290925260228201526042902090565b60008060008061099688888888610c5c565b9250925092506109a68282610d2b565b50909695505050505050565b6001600160a01b0384166109dc5760405163e602df0560e01b81526000600482015260240161049e565b6001600160a01b038316610a0657604051634a1406b160e11b81526000600482015260240161049e565b6001600160a01b038085166000908152600160209081526040808320938716835292905220829055801561068257826001600160a01b0316846001600160a01b03167f8c5be1e5ebec7d5bd14f71427d1e84f3dd0314c0f7b2291e5b200ac8c7c3b92584604051610a7991815260200190565b60405180910390a350505050565b6001600160a01b038316610ab2578060026000828254610aa791906110da565b90915550610b249050565b6001600160a01b03831660009081526020819052604090205481811015610b055760405163391434e360e21b81526001600160a01b0385166004820152602481018290526044810183905260640161049e565b6001600160a01b03841660009081526020819052604090209082900390555b6001600160a01b038216610b4057600280548290039055610b5f565b6001600160a01b03821660009081526020819052604090208054820190555b816001600160a01b0316836001600160a01b03167fddf252ad1be2c89b69c2b068fc378daa952ba7f163c4a11628f55a4df523b3ef83604051610ba491815260200190565b60405180910390a3505050565b606060ff8314610bcb57610bc483610de4565b9050610378565b818054610bd7906110a0565b80601f0160208091040260200160405190810160405280929190818152602001828054610c03906110a0565b8015610c505780601f10610c2557610100808354040283529160200191610c50565b820191906000526020600020905b815481529060010190602001808311610c3357829003601f168201915b50505050509050610378565b600080807f7fffffffffffffffffffffffffffffff5d576e7357a4501ddfe92f46681b20a0841115610c975750600091506003905082610d21565b604080516000808252602082018084528a905260ff891692820192909252606081018790526080810186905260019060a0016020604051602081039080840390855afa158015610ceb573d6000803e3d6000fd5b5050604051601f1901519150506001600160a01b038116610d1757506000925060019150829050610d21565b9250600091508190505b9450945094915050565b6000826003811115610d3f57610d3f6110fb565b03610d48575050565b6001826003811115610d5c57610d5c6110fb565b03610d7a5760405163f645eedf60e01b815260040160405180910390fd5b6002826003811115610d8e57610d8e6110fb565b03610daf5760405163fce698f760e01b81526004810182905260240161049e565b6003826003811115610dc357610dc36110fb565b036103c3576040516335e2f38360e21b81526004810182905260240161049e565b60606000610df183610e23565b604080516020808252818301909252919250600091906020820181803683375050509182525060208101929092525090565b600060ff8216601f81111561037857604051632cd44ac360e21b815260040160405180910390fd5b6000815180845260005b81811015610e7157602081850181015186830182015201610e55565b506000602082860101526020601f19601f83011685010191505092915050565b602081526000610ea46020830184610e4b565b9392505050565b80356001600160a01b0381168114610ec257600080fd5b919050565b60008060408385031215610eda57600080fd5b610ee383610eab565b946020939093013593505050565b600080600060608486031215610f0657600080fd5b610f0f84610eab565b9250610f1d60208501610eab565b929592945050506040919091013590565b600060208284031215610f4057600080fd5b5035919050565b600060208284031215610f5957600080fd5b610ea482610eab565b60ff60f81b8816815260e060208201526000610f8160e0830189610e4b565b8281036040840152610f938189610e4b565b606084018890526001600160a01b038716608085015260a0840186905283810360c08501528451808252602080870193509091019060005b81811015610fe9578351835260209384019390920191600101610fcb565b50909b9a5050505050505050505050565b600080600080600080600060e0888a03121561101557600080fd5b61101e88610eab565b965061102c60208901610eab565b95506040880135945060608801359350608088013560ff8116811461105057600080fd5b9699959850939692959460a0840135945060c09093013592915050565b6000806040838503121561108057600080fd5b61108983610eab565b915061109760208401610eab565b90509250929050565b600181811c908216806110b457607f821691505b6020821081036110d457634e487b7160e01b600052602260045260246000fd5b50919050565b8082018082111561037857634e487b7160e01b600052601160045260246000fd5b634e487b7160e01b600052602160045260246000fdfea2646970667358221220e0adb79523aabdcf477d9ed760622001672f7f7cd06be83421f15b7c04b08ae464736f6c634300081a0033","linkReferences":{}},"methodIdentifiers":{"DOMAIN_SEPARATOR()":"3644e515","allowance(address,address)":"dd62ed3e","approve(address,uint256)":"095ea7b3","balanceOf(address)":"70a08231","burn(uint256)":"42966c68","burnFrom(address,uint256)":"79cc6790","decimals()":"313ce567","eip712Domain()":"84b0196e","mint(address,uint256)":"40c10f19","name()":"06fdde03","nonces(address)":"7ecebe00","owner()":"8da5cb5b","permit(address,address,uint256,uint256,uint8,bytes32,bytes32)":"d505accf","renounceOwnership()":"715018a6","symbol()":"95d89b41","totalSupply()":"18160ddd","transfer(address,uint256)":"a9059cbb","transferFrom(address,address,uint256)":"23b872dd","transferOwnership(address)":"f2fde38b"},"id":19}